:1000000009C016C015C086C013C012C011C010C0F0
:100010000FC00EC011241FBECFE9CDBF20E0A0E667
:10002000B0E001C01D92A836B207E1F798D0D8C061
:10003000E7CF26E131E0019708F40895F9013197FF
:10004000F1F7F9CF8F929F92AF92BF92CF92DF924A
:10005000EF92FF920F931F934FB7F8948091600037
:1000600090916100A0916200B09163006091600086
:1000700070916100809162009091630080906000B7
:1000800090906100A0906200B0906300C09060000A
:10009000D0906100E0906200F090630000916000F9
:1000A0001091610020916200309163004FBF43E0E6
:1000B00096958795779567954A95D1F754E0B694CC
:1000C000A794979487945A95D1F7680D791D8A1D46
:1000D0009B1DE6E0F694E794D794C794EA95D1F790
:1000E0006C0D7D1D8E1D9F1DF7E03695279517958C
:1000F0000795FA95D1F7600F711F821F931F1F910B
:100100000F91FF90EF90DF90CF90BF90AF909F90B6
:100110008F9008951F920F920FB60F9211248F9314
:100120009F93AF93BF938091600090916100A091E5
:100130006200B09163000196A11DB11D8093600023
:1001400090936100A0936200B0936300BF91AF9160
:100150009F918F910F900FBE0F901F9018958FB5A4
:1001600083608FBD89B7826089BF83B7816083BF99
:1001700012BE789483E886B9BA9A64DF609364000B
:10018000709365008093660090936700C29A88EB35
:100190009BE04FDFC29880ED97E04BDF53DF00918B
:1001A0006400109165002091660030916700601B2B
:1001B000710B820B930B603875488048914070F347
:1001C000C29A84EF91E035DF85B7877E806185BF75
:1001D00085B7806285BF889585B78F7D85BFDECF67
:0401E000F894FFCFC1
:00000001FF
