:1000000009C016C015C085C013C012C011C010C0F1
:100010000FC00EC011241FBECFE9CDBF20E0A0E667
:10002000B0E001C01D92A836B207E1F797D0D5C065
:10003000E7CF8F929F92AF92BF92CF92DF92EF92D3
:10004000FF920F931F93EFB7F89480916000909107
:100050006100A0916200B0916300409160005091F6
:1000600061006091620070916300C0906000D09068
:100070006100E0906200F0906300009160001091D8
:100080006100209162003091630080916000909146
:100090006100A0916200B0916300EFBF4A015B0173
:1000A00043E0B694A794979487944A95D1F7B70103
:1000B000A601E4E07695679557954795EA95D1F7BF
:1000C000480D591D6A1D7B1DF6E03695279517953D
:1000D0000795FA95D1F7400F511F621F731F17E064
:1000E000B695A795979587951A95D1F78A019B01A3
:1000F000080F191F2A1F3B1FC901B8011F910F913B
:10010000FF90EF90DF90CF90BF90AF909F908F9037
:1001100008951F920F920FB60F9211248F939F9301
:10012000AF93BF938091600090916100A0916200B5
:10013000B09163000196A11DB11D80936000909362
:100140006100A0936200B0936300BF91AF919F9153
:100150008F910F900FBE0F901F9018958FB58360F1
:100160008FBD89B7826089BF83B7816083BF12BEAC
:10017000789483E886B9B89A5CDF609364007093E2
:10018000650080936600909367008FB58F738FBD75
:10019000C0984FDF009164001091650020916600C7
:1001A00030916700DC01CB01801B910BA20BB30BDC
:1001B00080389548A048B14040F38FB58F738FBD0C
:1001C000C09A85B7877E806185BF85B7806285BF0D
:0E01D000889585B78F7D85BFD8CFF894FFCF77
:00000001FF
