:100000000C9434000C9446000C9446000C9446006A
:100010000C9446000C9446000C9446000C94460048
:100020000C9446000C9446000C9446000C94460038
:100030000C9446000C9446000C9446000C94460028
:100040000C949F000C9446000C9446000C944600BF
:100050000C9446000C9446000C9446000C94460008
:100060000C9446000C94460011241FBECFEFD8E03C
:10007000DEBFCDBF21E0A0E0B1E001C01D92AD30F8
:10008000B207E1F70E94E9000C947D010C94000096
:100090003FB7F8948091090190910A01A0910B015A
:1000A000B0910C0126B5A89B05C02F3F19F0019611
:1000B000A11DB11D3FBFBA2FA92F982F8827BC01C2
:1000C000CD01620F711D811D911D42E0660F771FEA
:1000D000881F991F4A95D1F708958F929F92AF92EA
:1000E000BF92CF92DF92EF92FF924B015C010E9490
:1000F00048006B017C010E9448006C197D098E0943
:100100009F09683E734081059105A8F321E0821A9A
:100110009108A108B10888EEC80E83E0D81EE11C42
:10012000F11C81149104A104B10429F7FF90EF9010
:10013000DF90CF90BF90AF909F908F9008951F92C7
:100140000F920FB60F9211242F933F938F939F938B
:10015000AF93BF938091050190910601A091070193
:10016000B09108013091040123E0230F2D3758F599
:100170000196A11DB11D2093040180930501909368
:100180000601A0930701B0930801809109019091A5
:100190000A01A0910B01B0910C010196A11DB11DA6
:1001A0008093090190930A01A0930B01B0930C0175
:1001B000BF91AF919F918F913F912F910F900FBE63
:1001C0000F901F90189526E8230F0296A11DB11DD0
:1001D000D2CF789484B5826084BD84B5816084BDBB
:1001E00085B5826085BD85B5816085BD80916E00D5
:1001F000816080936E001092810080918100826006
:100200008093810080918100816080938100809142
:1002100080008160809380008091B1008460809331
:10022000B1008091B00081608093B00080917A002D
:10023000846080937A0080917A00826080937A0053
:1002400080917A00816080937A0080917A00806842
:1002500080937A001092C100209A2FB7F894809171
:10026000050190910601A0910701B09108012FBFEF
:100270008093000190930101A0930201B0930301C8
:10028000289A68EB7BE080E090E00E946D0028985F
:1002900060ED77E080E090E00E946D00C0E0D0E08B
:1002A0002FB7F8948091050190910601A091070164
:1002B000B09108012FBF4091000150910101609160
:1002C000020170910301841B950BA60BB70B8038BC
:1002D0009548A048B14060F02D9A83B7817F846033
:1002E00083BF83B7816083BF889583B78E7F83BFC9
:0E02F0002097B1F20E940000D3CFF894FFCF08
:00000001FF
